:020000041000EA
:4000000000400208310100100D000000950100100000000000000000000000000000000000000000000000000000000091010010000000000000000091010010910100109B
:400040009101001091010010910100109101001091010010910100109101001091010010910100109101001091010010910100109101001091010010910100109101001060
:400080009101001091010010910100109101001091010010910100109101001091010010910100109101001091010010910100109101001091010010910100109101001020
:4000C00010B5064C2378002B07D1054B002B02D0044800E000BF0123237010BD7C04000800000000B4460010084B10B5002B03D00749084800E000BF07480368002B00D1F2
:4001000010BD064B002BFBD09847F9E70000000080040008B4460010F0000008000000007047EFF3108072B6704780F310887047FFF7F6FF72B6104C104DAC4209DA21686E
:400140006268A368043B02DBC858D050FAE70C34F3E70B490B4A0020521A02DD043A8850FCDC094809490860BFF34F8F00F07EF900F01EF8FEE70000B8460010D046001030
:400180007C040008BC0700080000000808ED00E0FEE7FEE700B504207146084202D0EFF3098001E0EFF30880043001F065FCFEE770B562B62E4800F0CDF908222D4B9A6073
:4001C00002232D4A93602D4A936000F0E9F900F071FAFF2500E0250000F0FAF904008542FAD00B283FD88300254AD3589F462549254801F041FDEEE72449234801F03CFD0B
:40020000E9E72349204801F037FDE4E721491E4801F032FDDFE720491B4801F02DFDDAE71E49194801F028FDD5E71D49164801F023FDD0E71B49144801F01EFDCBE71A49C5
:40024000114801F019FDC6E718490F4801F014FDC1E717490C4801F00FFDBCE715490A4801F00AFDB7E71449074801F005FDB2E700000810000032408000324080053240CA
:40028000003F0010303F0010000066403C3F0010483F0010543F0010603F00106C3F0010783F0010843F0010903F00109C3F0010A83F0010B43F0010C03F001070B562495E
:4002C000E0239B00CB580F2213401A00D0329200525807210A40032A05D0042A06D0002A12D15A4814E05A4A106811E01A00C0329200554952581F210A40112A06D0132A7B
:4003000004D0FA20C00103E0524801E080200002002B36D14C4BB222D2009A5801211140B125ED005A59120F032422405B591B0F1C4207D0444C63591B0F03242340012BDB
:4003400002D102E0012300E00023002B01D0002901D1032A4BD13C4BB022D2009D58AD03AD0B3D495958C904C90C9C58240E01231C40013403F010FD6843210003F00CFD5D
:4003800035E0012B33D1304BC822D2009A5801251540C024E4001A59120F03210A401B591B0F194207D028490B591B0F03210B40012B02D102E0012300E00023002B01D048
:4003C000002D01D1032A12D11F4DC022D200AB587F210B40A958090A1F263140AC58240C3440584303F0D8FC210003F0D5FCE0239B00154AD3581B0903221340D840144CEB
:400400006060164B1D692D0AFC32154001351969090E013103F0C0FCA060290003F0BCFC0500E06020610E4BC0180E4903F0B4FC20750D4BE818FA21890003F0ADFCA061B8
:40044000C003E06170BDC0460000264000127A00C000000800366E0184050000000021403F420F0040420F00E703000010B5234BB021C9005A58520052085A50E02080009C
:400480001A583024A2431A50802252045A501C491C4A9950A021890104329950FF211A4A995081315A58920092088020C00502435A505A588020000602435A505A580120FC
:4004C00082435A5000F036FAFFF7F8FE00F012F900F01AF901F0B8F8B0235B055B78002B04D0B0235B055B78DBB200E02123212B03D1064B0022DA605A6010BD000026406C
:4005000001000200840500008C050000E00023408023024AD3580320184070470000214010B5FFF7FEFD084980228C58074B2340074C23438B508823034AD358DB06FAD505
:40054000FFF7F3FD10BDC04600002140FCFF00000100FA0570B50500FFF7E3FD0400FFF7D7FF032801D1FFF7DBFF0A4AB0239B00D55080215058084B0340084803435350CA
:400580008823044AD358DB06FAD52000FFF7CDFD70BDC04600002140FCFF00000300FA0500B583B003F0C6FB064B0093D423D4220549064801F0C0FD02F000F902F0C4FCA2
:4005C00003B000BD80070008A40600080000644010B502F083FC002869D102F007F902F0C7FA02F075FA00285BD00021002002F091FA002801D1002400E003240121002090
:4006000002F088FA002800D002240221002002F081FA002800D000240321002002F07AFA002800D001240421002002F073FA002800D005240521002002F06CFA002800D03A
:4006400008240021012002F065FA002800D004240121012002F05EFA002800D00A240221012002F057FA002800D007240321012002F050FA002800D00B240421012002F05E
:4006800049FA002800D006240521012002F042FA002800D00924022002F02AFA002802D102E0FF2400E00C2402F04EFC00E00024200010BD10B5084C084A0949200001F0F8
:4006C0008BFE236880221206134323600549200001F0D2FA10BDC046000066406C060008E4440010D03F001010B5002000F0C4FD10BDC04610B5034A8021042000F028FB8B
:4007000010BDC0469804000810B50748103000F0DFFB01F01AFA0400044800F04BFC200001F017FA10BDC04698040008E83F0010FEE7C0460323044A1360044A1360044AE7
:40074000044B1A607047C046102031401420314001001180000E1F4130B587B05E4BA021C9005A58032082435A505C4990240A595B4802400A510A691202120A802464046F
:4007800022430A610A6910400861E022920099580F20814399509958213081439950995880200006014399500021012000F082FD0021022000F07EFD0021032000F07AFD1F
:4007C0000021042000F076FD0021002000F072FD01A8444903000A0032CA32C312CA12C300F090FD002802D00420FFF7A1FF3A493D4A8B588020000603438B503B4800F074
:4008000039FE002802D00420FFF792FF324C384BE158384A0A40E250E158374A0A40E250E25880252D062A43E250043BE158334A0A40E250E158324A0A40802189010A43D5
:40084000E250E258802109020A43E2502D4A11682D4B0B40802149000B431360002001F07BF92A4AA3581D43A550A3580125AB432B43A3506421002001F016F9244B254A47
:400880009D5025481958164A1140C024A400214319508021C900214858505858022420481C50204C185910408C25AD01284318511D485850585800241C481C508020000190
:4008C0001C582240FE24240222431A50184A5A505B5807B030BDC0460000264000002140FF00FFFF2C400010087F0000400D030004050000FEFCFFFFFFFF00FFFFF0FFFFA0
:40090000FF8FFFFF00002740FFFCFFFF0C050000000001400C0C00000408000001FF0080140C00000808000002FF0080CC0C000000FF008070B58AB09621002001F0B4F8FA
:4009400001F08AF8002801D101F076F8012000F0F5FF434A516C434B0B40E82189010B435364536C1B0AFF2213403A2B07D13C4A516C3D4B0B40E82189010B435364FFF7B2
:40098000EBFE0F22394B1A60394A3A4B1A6001AC394D22002B00143343CB43C243CB43C243CB43C22100354800F058FE22002B00383343CB43C243CB43C243CB43C22100A7
:4009C0002F4800F04BFE22002B005C3343CB43C243CB43C243CB43C221002A4800F03EFE294923000A0043CA43C343CA43C343CA43C32100254800F031FE24220021200067
:400A000003F056FA802301932100214800F026FE24220021200003F04BFABE23019321001C4800F01BFE24220021200003F040FA772301932100184800F010FE22002B002E
:400A4000383323CB23C223CB23C223CB23C22100124800F003FEFFF76DFE0AB070BDC04600002740FF00FFFFFFC5FFDF0000644007010100000264402C4000100000324091
:400A80008000324080023240AC400010000332408003324000043240000532408005324010B583089A00801AC000FF228240D44381400A40072B32D89B001949CB589F467C
:400AC000184B196A0C4022431A6228E0154B596A0C4022435A6222E0124B996A0C4022439A621CE00F4BD96A0C402243DA6216E00C4B196B0C4022431A6310E0094B596BAF
:400B00000C4022435A630AE0064B996B0C4022439A6304E0034BD96B0C402243DA6310BDD04000100000214083089A00801AC100FF228A40072B2BD89B001748C3589F460E
:400B4000164B186A1040C84023E0144B586A1040C8401EE0114B986A1040C84019E00F4BD86A1040C84014E00C4B186B1040C8400FE00A4B586B1040C8400AE0074B986B59
:400B80001040C84005E0054BD86B1040C84000E00020C0B27047C046F04000100000214070B504000D000B4B9A680B4B9A420BD1002903D1FC21094800F030FF1034064B82
:400BC000A400E058E55003E01034A400044BE05870BDC04600ED00E0000000081041001000000010F0B583B0041E019150D04368032B03D93621294800F010FF0023E05E90
:400C0000002802DBA178FFF74BFF0023E25E6368002A12DB9008224EC0308000875903210A40D200FF25290091408F4399012B000B4093403B43835117E092B20F21114098
:400C400008398908063189001648844661444E6803200240D200FF2738009040864398013B000340934033434B600E4B9A680E4B9A420FD1019B002B03D14521074800F076
:400C8000CDFE0023E05E0199FFF78AFF002002E0064800E0002003B0F0BDC0461041001000E100E000ED00E0000000080100560070B504000D000369002B0ADA0B0C03D050
:400CC0000549064800F0AAFE2D042D0C6560002000E0034870BDC046B30200005441001001008A0070B505000C000368002B01DA002300E0084B002B0BD1EA60230C03D0DE
:400D00000649074800F08AFE2404240CAC60002000E0014870BDC04601008A009A0200005441001070B505000C1E03D19921064800F074FE2B69002B03DAEB6823600020CD
:400D400000E0024870BDC0469441001001008A00F8B504000E0015000F283FD8002A10D100290ED10F2804D9AA21FF31214800F055FE6401204B9C466444204B1C60002055
:400D800037E0002D2CD0002E2CD0F3062CD10F2C04D9AA21FF31174800F040FE6401164B9C466444154F3C607E60BD60F2080021280003F07DF800212000FFF779FF3A0054
:400DC00001CA0021FFF78EFF00280FD10B4B18680021FFF76DFF00280AD10AE0084808E0074806E0064804E0054802E0054800E00448F8BDD441001000002340280600087C
:400E000003018A0001018A00F0B583B00D001C4B1B68DC68236883422DD947097B01C01A012383401E00002903D100F08EFE019001E000230193124B18680368002B01DA94
:400E4000002300E00F4B002B0ED16368BF00DF193B68334203D0B3433B60002400E00A4C0021FFF725FF00E0084C002D04D1019800F06FFE00E0064C200003B0F0BDC04694
:400E80002806000801008A00020188000301880004018A000A4B1B68DA68136883420BD943095901401A0121814052689B009B580B4203D0034802E0034800E003487047E8
:400EC000280600080101880004018A0000018800034B1B68002B01D1014B18607047C04634060008F0B5474680B404000F0090461E002B4B1B68002B03D1B421294800F0EE
:400F00008DFD072C03D9B521264800F087FD244B1B682C2060431C18FF22150035402560330A13406360330CA3600F2D04D9AA21FF311D4800F072FD6B011C4A944663445B
:400F4000236165680F2D04D9E2214900164800F065FD6D01164B9C4665446561A668330C04D0F1214900104800F058FD330C04D0E421FF310C4800F051FD3604330C1E431E
:400F8000AE604346E36127620023A361069B002B02D000229B5EA38104BC9046F0BDC0463406000814420010D44100100000234000102340F0B58FB0041E03D150212E481C
:400FC00000F02CFD6368032B03D952212A4800F025FDE36A002B03D15621274800F01EFDE368072B03D95721234800F017FD236A072B03D95821204800F010FD236B002B5D
:4010000003D159211C4800F009FD07AA1300210061C961C321C921C302AD290023001433C1CBC1C141CB41C10821535E0CAE3380079B1933B370089B0D930B9B0A98009630
:40104000A26AE16AFFF74EFF2B69E868002200920021FFF747FF216B3000FFF7C3FD0023F25E002A05DB1F231A401E3B9340034A13600FB0F0BDC0461442001000E100E0D1
:40108000F8B504000F0016001D00002A03D1FD21284800F0C3FC284B1B68002B03D1FE21244800F0BBFC072C03D9FF21214800F0B5FC072F04D9802149001E4800F0AEFCA5
:4010C0001D4B1B682C2120004843181879435918012213004C68A3401B044468A24014000269002A20D08F69002F1FD11268002A01DA002200E0114A002A19D132681204E6
:40110000120C134333600369DE6001238B614D620569230C03D00A490A4800F07FFC2204120CAA60002004E0074802E0074800E00648F8BD144200103406000801008A00D7
:401140009A020000D441001004028A0007028A0070B504000D001600134B1B68002B04D16221FF31114800F059FC072C04D9B12149000E4800F052FC0B4B1B682C20604386
:401180001C18236A002B04D1B3214900074800F045FCE369B34204D9236AB6009D51002000E0034870BDC04634060008144200100A028A0070B582B004000023019300288C
:4011C00004D1EA2149002B4800F028FC2369002B04D1D621FF31274800F020FC6369002B04D1EB214900234800F018FC236A002B04D1D821FF311F4800F010FC6269D56860
:401200002B0C1FD01B041360136820690369002B18DA01A9FFF786FD00280ED1019803681E0CFF221340E269934207D29B00226AD358002B02D0984700E0002631002069B6
:40124000FFF736FD2D042D0C0FD063691D601B68636A002B03D098470023636203E0A36A002B00D098470023A36163691B6802B070BDC0461442001010B504000B4B1B6871
:40128000002B04D1DA214900094800F0C7FB072C04D9B621FF31064800F0C0FB034B1B682C2060431818FFF785FF10BD340600081442001004281DD8042904D94B1EFF3B2A
:4012C0009BB2132B18D8FF290CD91F2319400B4A0300C0339B009950D03080000423835000200AE007231940D0308000034BC150002002E0024800E0014870470000264084
:4013000001004A0070B5041E04D1E221FF314C4800F084FBB023DB004A4AD358002B01DB002500E0484D002D00D086E0474B22689A4204D9F8214900414800F06FFB2368FA
:401340009B03990BE3791B068022520413400B43B022D2003B498B50A2883D4B9A4204D9F821FF31364800F059FB2289394B9A4204D9FC214900324800F050FBA388DB048F
:40138000D90C23891B04344A13400B43334A2D498B50A37A0F2B04D9FF214900284800F03DFBE37A0F2B03D92A49254800F036FBA289274B9A4204D980218900204800F00F
:4013C0002DFBA37A0F211940E27A1201FF2313400B43A289120222490A401343A27B1207C02189050A401343B122D20015498B50A379072B04D982218900114800F00EFBD7
:40140000228A144B9A4203D916490D4800F006FB0C4815494658154B1E40A3791B02E022D2001340334343504658114B1E40238A1B04094A134033434350280070BDC0469F
:40144000544200100000264003004A00FFFF0300FF1F0000FF0100000000FF018405000000FF1F00090200008C050000FFF8FFFFFFFF00FE70B505002D492E4A8B58802025
:40148000000603438B502C0003E0012000F0BAFA013CB223DB00264AD3585B0701D4002CF3D12349B122D2008858234B03408020800503438B50002D02D00ED0002C0CD0B5
:4014C0001B49B022D2008B588020000603438B5003E0012000F096FA013CB223DB00144AD358DB0701D4002CF3D1002D0ED0002C0CD10F4AB021C90053585B005B08535086
:401500000C4953585B005B0853500BE0084B0221B222D2009950B121C9005A58C020800502435A50002C01D1044800E0002070BD000026408C050000FFFFFFCF02004A0033
:40154000214B984230D00ED8402831D004D800281FD010282AD031E080282BD080235B00984229D02AE0194B984229D007D8A0231B0698420DD0164B984212D01EE0154BF6
:4015800098420AD0144B984209D0144B984215D101E0002016E0124814E0124812E0124810E0A020C0030DE007480BE00F4809E00F4807E00F4805E0034803E00E4801E0A2
:4015C000A420C0037047C04606005200010000F0090000A0040000F0050000F0030000F0010052000200520003005200010050000200500005005200FF00520010B50C4B76
:401600001B69002B11DB0B4B1868FFF799FF0121094B0A4AD150084B084AD358002BFAD1074BD358002BF6D100E0064810BDC04600002340380600080C040000000025406C
:401640008C0400000200500010B5022202490020FFF77EFD10BDC0464901000870B505000C00002848D0002948D0FF230A689A4303D08D21224800F0D1F9FF2322699A4347
:4016800003D08E211E4800F0C9F9A3685B0D03D08F211B4800F0C2F963685B0A03D09021174800F0BBF9E3695B0F03D09121144800F0B4F9236A5B0F03D09221104800F0DC
:4016C000ADF9104BEB18DB090F4A944663441B0122682A60E268AA622269EA6262692A63A2686A626268AA61A2696A63E2691A60226A5A60002002E0044800E0034870BD3F
:40170000DC4200100000CEBF0010030401005A00F0B5474680B404000D001700984606AB1E78072903D9D1212F4800F077F90F233A009A4303D0D2212B4800F06FF9434691
:40174000012B03D9D321284800F068F91F2332009A4303D0D421244800F060F9226801231900A9408A4341460B40AB4013432360A36AAA000F210800904083430F40974020
:401780001F43A762072D03D91849194800F046F91F2332009A4303D01649154800F03EF9154B9C466444E409144B9C4664442401032D0AD82268ED001F23AB409A431F23FC
:4017C0001E40AE40164326600AE0043D6368ED001F22AA4093431F221640AE401E43666004BC9046F0BDC046DC420010450200001C430010460200000000CEBF0010030415
:4018000010B5074A074813580F24A34302210B43135004381358A3431943115010BDC0460000214004F0000010B5074A074813580F24A34303210B43135004381358A3432E
:401840001943115010BDC0460000214004F000000449054A8858054B0340C020C00103438B5070470000214004F00000FF8FFFFF0449054A8858054B03408020C001034364
:401880008B5070470000214004F00000FF8FFFFF10B5002000F07AF9B0235B055B78002B04D0B0235B055B78DBB200E02123222B03D8002803D1013002E0012000E0002059
:4018C00010BDC04610B50400002000F05FF900280AD114498A69144B1A40240680235B041C4014438C611BE0002C01D00F4A00E00F4A01210F48FFF7F5F900280DD10D4BC7
:401900001B69002BFBDB0B4BDB681B0E1B06A0221206934203D0084802E0074800E0002010BDC04600F02540FFFFFFFE01010030010000300000234004004200F8B505005B
:40194000012804D9EA21C900294800F067F8FFF79FFF002848D000F0F8F80700002D17D1E823DB00B0225205D65CF6B20120FFF7A9FF041E1FD1FFF743FF1E481E494358A3
:401980001F229343143A13434350FFF761FF12E01A4BB0225205D65CF6B21648164943581F229343143A13434350092000F02AF8FFF75EFF0024002C12D10E490E4A8B5830
:4019C0001F20834306401E438E50012D08D1163800F018F8FFF728FF0020FFF773FF0400380000F0B6F800E0054C2000F8BDC0465C430010000026401CFF00004107000005
:401A00000300420010B5034B1B78584300F094F810BDC046D400000801BEFEE770B50D00044C18220100200002F04AFAA5610020FFF7F2FF40040008054B802212069A64DD
:401A40009B6C002B01DB002000E002487047C0460000274003004600054B8022120198585B68FF221A4202D08023DB021843704700002640FEE7C04610B50A4B0268DA61F8
:401A800042681A6282685A62C2689A620269DA6242691A6382695A63C2699A63FFF7EAFF10BDC04640040008F0B5002801D0192200E064228A42924152421C4BE8256D0044
:401AC0005C590327BC433A4014435C515C59184E34405C51D03D5C59BC4322435A515A5916405E51002805D010290DD921290DD8012014E01D290BD93A290BD957290BD990
:401B000078290BD803200AE0002008E0022006E0002004E0012002E0022000E00420054A13680F218B4303431360F0BD00002140FFFCFFFF000025400230800803D001302C
:401B40000238FCD1C046C0467047EFF3108072B6704780F310887047042805D1094A116804230B4313600CE00006C0239B04184090239B00044AD050024A136804218B4390
:401B80001360704710E000E00000214010B504000F2803D9E4210548FFF740FFA402044B9C46644423680F20184010BD9C4300100040244030B5C0239B00C3580F24234062
:401BC000072B07D900230FE0D024A4000459CC54013300E000239342F6D307E05C00D025AD0045590D5301339342F7D330BDC04610B51400C2239B00C358DB05DB0D9A4216
:401C000000D31C002200FFF7D5FF200010BDC04630B580239B00C3580F242340072B07D900230FE0CD5C9024A4000551013300E000239342F6D307E05C00655A9024A400D8
:401C4000055101339342F7D330BDC04610B5140003681B0501D5802200E0402282239B00C358DB05DB0DD31AA34200D81C002200FFF7CEFF200010BD30B503681B0501D529
:401C8000802200E0402200240AE082239B00C358DB05DB0D9A42F8D090239B00C55001340D5D002DF1D130BD03E090239B00C150013A002AF9D1704710B5140003681B0501
:401CC00001D5802200E0402282239B00C358DB05DB0DD31AA34200D81C002200FFF7E4FF200010BD4A68202313434B60C1239B00C258802149020A43C250C158044A0A40CE
:401D0000C250C3580023034A8350034A83507047FFFFFEFFC80F0000880F00004B689B060CD503685B005B08036000238366C3660368802212061343036003680B78062B00
:401D400003D10022194BC25006E00022184BC250026E184B134003664B68102293434B600B7E002B0FD00B78062B05D00B69CA68934203D0022202E0012200E000224B683D
:401D800013434B600EE00B78062B05D04B69CA68934203D0082202E0042200E000224B6813434B6000230B707047C046880F0000C80F0000FF5FFFFF10B54A7A002A03D08A
:401DC0000B7A5340DB4300E0FF23C424A4000159044A11405B04FF22120413400B43035110BDC046FFFF00FF70B504000D0001230B764B7A002B28D0D0239B00C3585B08FC
:401E0000FC2212010121815082582A7A934202D06A7A93420FD16A7A934201D100232B76F4231B011022E250E3585222FF322E4BE25001210AE02D492D48FFF7EFFD422212
:401E4000FF322C4BE250022100E0012181239B00E258802040020243E250E058264A0240E250E358E16601293CD16B68102213436B60636E1A4217D006232B702B7E002BEA
:401E800007D02B696A6AD218EA61AA6AD31A2B6206E06B692A6BD218EA616A6BD31A2B620122164BE2501DE002232B702B7E002B01D0AB6A00E06B6B2B6223681B0501D55C
:401EC000802300E04023002B03D10D490848FFF7A5FDC1229200A358FF218B43A3500122084BE25070BDC046480F0000AE050000DC430010880E0000FFFFFEFF880F000032
:401F00005E020000C80F000070B505000C000A6A002A09D0C969FFF799FE236A1B1A2362E3699C466044E061236A002B04D18022FF212800FFF7C0FE70BDC04670B505001C
:401F4000802906D90B00803B802B10D881390C000EE0036E8022120213430366002901D04C1E00E0002400220C4BEA5000E03F242B681B0501D5802300E040239C4203D365
:401F800007490848FFF74AFDC1229200AB58FF218B4321401943A95070BDC046C80F00005E020000DC43001070B505000C000B78DBB2042B64D002D8022B03D290E0052B6A
:401FC00078D08DE0D0239B00C3588A7A012A0ED10A78022A07D1013AC2661A02CA6003220A70002204E0CA681343012200E00122002A75D0226A934208D2227E002A01D0AE
:40200000236100E06361E360012307E0237E002B01D0236900E06369E3600223EB66012B5ED1237E002B0BD02169636A5A18E261E36A994201D25B1A00E0002323620AE0AC
:402040006169236B5A18E261A36B994201D25B1A00E000232362637A002B02D1236A7F2B02D8042323703BE02B6E8022920113432B66216A2800FFF761FF052323702FE051
:40208000D0239B00C3580A6A002A0DD00122C266CA6913700B6A013B0B62CB690133CB61CB680133CB601BE00223C36600220D4BC25015E0C1239B00C358FF221A400132A5
:4020C000C969FFF795FD236A191A2162E3699C466044E0612800FFF731FFE3680133E36070BDC046C80F000070B505000C0016004BB2002B04DA872189000D48FFF78EFC5E
:40210000737A9C4203D10B490948FFF787FC3472C42189006A58FF20824363001840040014436C5031002800FFF746FE70BDC046204400101D020000F8B50F0015001E000E
:40214000069C002A06D0002904D19A2189000648FFF764FCB54203D204490348FFF75EFC6762A562E662F8BD204400106902000070B506000D0014004BB2002B03DA0849D5
:402180000848FFF74BFC237A9D4203D106490548FFF744FC657221003000FFF70DFE70BD8D020000204400108E02000070B504000D001600002800D182E0002900D181E085
:4021C000002A00D180E00B79002B02D0404B98427CD10123EB56002B03DA4F213D48FFF71DFC0223EB56002B03DA50213948FFF715FC6A78AB789A4203D151213548FFF7DF
:402200000DFC2B78012B03D952213248FFF706FCEB78012B03D953212E48FFF7FFFB2B78012B02D18022520200E000222B79002B02D080235B0000E0002313438022120179
:4022400013432360244B23660822FF32C0239B00E25000220433E2502B78002B06D17372697832002000FFF73FFF09E0697832002000FFF739FFA97832002000FFF778FFDC
:40228000164A80239B00E25040220433E2500023134AA350134AA350134AA350134AA350134AA3505221FF31124AA15073603370EA78B272B362F36233617361002006E00C
:4022C0000D4804E00C4802E00B4800E00A4870BD00006940204400100008004007010100C80E0000880E0000C80F0000880F0000080F0000480F00000100AA0070B5040033
:402300000E002F4BC358DB0705D501220A70E8231B01C250C3582B4BE5580223FF331D420CD031002000FFF7DDFCF4231B010222FF32E250E35810231D4309E03378052B9C
:4023400006D1EB0604D501231F4AA3501F4AA3501F4BE358DB0708D531002000FFF724FEFC231B010122E250E358EB060AD531002000FFF7D3FCF4231B011022E250E35890
:40238000104BE5586B060DD531002000FFF72CFDE8231B010122E250E358F4231B013F32E250E3580B4BE358DB0708D531002000FFF7AAFDF8231B010122E250E35870BDC8
:4023C0008C0E00004C0F0000C40F0000C80F0000CC0F00008C0F0000F8B505000C001600002800D1C1E1002900D1C0E1C04B984200D1BEE10B78022B03D94221BD48FFF77F
:402400000DFB637B023BDBB2062B03D94321B948FFF704FBA37B002B07D0022B05D0032B03D04421B348FFF7F9FA2123E35C012B03D94521AF48FFF7F1FA2823E35C012B9A
:4024400003D94621AB48FFF7E9FA2378012B06D86268083A082393429B415B4208E0A37F002B05D063685A1E062393429B415B42002B03D048219F48FFF7D0FAA368053B06
:40248000042B03D949219B48FFF7C8FA6369FF2B03D94A219748FFF7C1FAA369FF2B03D94B219448FFF7BAFAA37C002B0FD02378002B07D1A368092B06D1A37B002B05D040
:4024C000012304E0012302E0012300E00023002B03D04D218748FFF7A1FA874B626B1A4203D04F218348FFF799FA844BE26B1A4203D050217F48FFF791FA2378022B02D1AA
:40250000A37F002B02D063685A1E00E00022237F002B02D08021490200E00021A368082B02D880231B0100E0002319430F2313400B438022920413432B60236B2A68120552
:4025400001D5802200E04022934203D365216948FFF764FAA36B2A68120501D5802200E04022934203D366216248FFF757FA636A2A68120501D5802200E04022934203D3FC
:4025800067215C48FFF74AFA23781B06C022920413402B64637F002B01D0402200E00022A07C002802D08023DB0000E000231A43237C002B02D08021490000E000210A4395
:4025C000637C002B02D08021890000E000210A43E36A013B1B04F020000303401343627B013A07210A4013431900A27B120130231A400B001343AB64237B002B02D08021B1
:40260000490000E00021E27B002A04D12378022B03D1013B02E0012300E00023002B02D080239B0000E000230B43A268013A0F273A401343C02292009446AB50FF22606909
:402640001040A3691A04FF2109040A400243C4239B00EA50E26A6346EB583B4003339A4201D3102A03D97D212248FFF7D7F9E37F002B04D02378012B03D0002302E00023C8
:4026800000E00123002B02D08021490000E00021627B013A072313401943A27B120130231A400B0013436B64237B002B02D08021490000E00021A3685A1E0F2313400B4354
:4026C0002278012A02D18022520200E00022134380229200AB50FF23226B1340C1229200AB502023E35C002B0AD08021890408E000006940A444001092F4FFFF8CF8FFFF0F
:4027000000212122A25C012A02D180235B0400E000230B432822A25C012A02D18022520200E000221343FF21626A0A4013432B65A36B0B4081229200AB50104B626B134032
:402740000F4AAB50E26B0F4B13400F4AAB50002E11D0002373603360B360F3603362F36233630A4B7363002006E0094804E0084802E0074800E00020F8BDC0466D0B00001F
:40278000C80F000073070000880F0000EFCDAB000160AA0010B5084B1B78002B06D100F059F900F0DBF90122034B1A7000F040F800F000FD10BDC0464806000810B5FFF718
:4027C000E9FF041E02D100F067FC0400002C02D100F0BAFB040000F081FB0028FBD100F053FA00F0A1FA200010BDC04670B50E4E0024002513E06B0904339B000B4A9B5897
:402800001F222A40D340DB0707D5300000F054F804003100280000F0E3F81C360135022DE9D9200070BDC04664450010A406000870B5002309E018491A1D92008818002432
:4028400044600120404250500133002BF3D0134C03231CE06668A27E0F4B5B1900211976012A02D0062A08D00FE0206900280CD0F179228B01F01CFB07E02069002804D056
:40288000F179228B520001F013FB1C342B005D1E002BDFD170BDC046A40600086445001030B50B884A889C1A0025CD800079844200DDCC8030BDC046F0B583B007008468A9
:4028C0004568837E01930026002300930BE0019A2100280000F03EFA009021002800FFF7DFFF0A3401363B8B9E42F0D3009803B0F0BDC046F0B50A8B8D684F680B690121BE
:4029000025E00C00044003D17E88BA79B21802E07A88BE79921BEE88B24201D3002200E00A00A24202D01E78013E1E70A24202D01C78002C07D188431043002A01D1FA7965
:4029400000E001221A7049000A3501336246541EA446002AD5D1F0BDF0B54F464646C0B48B6899464D680A69098B490001232CE04946CE886988194C234203D1E9890A2438
:40298000A046C1441C00044003D1AF79B846414401E0AF79C91BB14201D3002100E01900A14202D01678013E1670A14202D01478002C07D198430843002901D1E97900E0CF
:4029C0000121117001325B0061464C1EA4460029CED10CBC90469946F0BDC0465555555570B504008A7E184B1B181D7E012A02D0062A05D009E02800FFF77CFF050008E08C
:402A00002800FFF7A9FF050003E010491048FFF705F80D4B1B191D7663091F2214401E3AA240002D07D104339B000749CB1859689143596006E004339B000349CB185968EA
:402A40000A435A6070BDC046A4060008260400002445001070B51A4CD4220021200001F027FA184B238090231B016380164BA3800823A383073BA377144823002033020036
:402A8000643232CA32C332CA32C332CA32C312CA12C301001030040003230CE0A268238B04E00B78537201310A320300581E002BF7D11C342B005D1E002BEFD170BDC046D3
:402AC000A4060008DE2800006A180000544500100123002006E0131D9B000449CB185B68184313005A1E002BF5D17047A406000802280BD81F23034001229A404009031DD3
:402B00009B000348C3185868104000E000207047A4060008022818D8C200121A93000D4AD3181B8D8B4212D9C200121A9300094AD3182A331B78062B00D14900064B1818A3
:402B4000037E01208840184002E0002000E000207047C04654450010A40600080023024AD380024A13607047A40600086006000870B5002500263F4B1B68032B06D1FEF7AA
:402B8000E4FF01223C4BDA80FEF7E3FF3A4BDC88E4B2062C23D8A300384AD3589F460122344B1A6001261AE00022324B1A60012615E0FFF703FE00222E4B1A6001250126AB
:402BC0000DE002222B4B1A60012608E00022294B1A60012603E00322264B1A600026002E0FD0FEF7B2FF244BDB88DBB29C4205D1214AD188224B0B439BB2D380FEF7A9FFF3
:402C000000261C4B1B68012BB5D0022B2FD11A4ACC33D35CDBB2CF21525CD2B2022B26D8D800C01A810017484118098B8A421ED21149088980B2D024095B89B2884216D09F
:402C4000D900CB1A99000F4B59188C6893009A185300E418FEF779FF074B1A8992B2D0215A52228892B202315A52FEF772FF280070BDC04660060008A40600084C46001017
:402C80000080FFFF644500107047C046FF231940062903D083180021197102E08318002119715300195AC31859808218002313727047C04670B506000D00012305E0220059
:402CC00029003000FFF7E2FF23005C1E002BF6D170BDC04670B5094CC3001D1AAA00A21895688A0051184A00AA181B1A99006118897E1000FFF7DEFF70BDC04664450010F1
:402D000070B50500C200121A9300064AD3181B8B04E021002800FFF7DDFF23005C1E002BF7D170BD6445001010B5032303E02000FFF7E6FF23005C1E002BF8D110BDC04665
:402D40009840504380235B009A1A51434018000A7047C046F0B5474680B482B007000E00019201234EE06300985BF3185988884205D3431A321900251572012201E00B1A90
:402D80000022002A11D17D79AB420ED933191B7A3A7A934205D3220001993000FFF776FF2FE03219013313722BE03D79AB4204D97D79AB4225D2002A23D1FF23019A1340DC
:402DC000062B0FD00902331998461B79194308230122FFF7B5FF020A6300F3185A80434618710EE00902331998461B79194308230122FFF7A5FF020A6300F3185A80434668
:402E0000187123005C1E002BADD1002002B004BC9046F0BD70B504000D009F2808D91B4B994205D91A49280001F03CF8002921D09F2C09D9FF235B009D4205D9154928007A
:402E400001F030F8002917D09F2C07D97E2D05D97F21280001F026F800290FD09F2C0FD93E2D0FD93F21280001F01CF800290BD000200AE0042008E0032006E0022004E05A
:402E8000002002E0002000E0012070BDFE030000FF030000FF01000010B54B1EDBB2032B01D8102300E00023002911D0002B11D0642253430100180000F06EFF002301E01B
:402EC000013340000928FBD90A2804D9013B02E0002300E00023D8B210BDC046024BDB68802018407047C046A406000810B50E4BDB68DB030DD402280DD8430904339B0065
:402F0000094A9B581F220240D340DB0705D4012404E0112402E0012400E00024002C01D100F0A4FD200010BDA406000810B5054BDB68DB0303D400F0E7FC002000E0112072
:402F400010BDC046A406000810B50F4BDB681B0618D400240120404211E02000FFF7C6FF00280BD1012C03D80122084B1A7002E00022064B1A70FFF7D9FF04E00134022CCA
:402F8000EBD900E0112010BDA40600086406000830B583B00025074C08E020682179002300930E22FEF7B4FB083401350C2DF4D903B030BDE445001010B51B4A53780133AD
:402FC000DBB253705078C0B2FFF790FF041E09D1154B5B78022B02D10022134B1A70FFF7A5FF1EE0104B5B78022B11D10F4B1A8901321A81DA6880218A43DA60DA681202A9
:40300000120ADA60DA6804061443DC60002408E0064AD3681B021B0AD360D16803060B43D360002CC9D110BD64060008A406000810B501000F4B00229A5E002A0ADB1F234A
:403040001A401E3B934080220B488350BFF34F8FBFF36F8F074C2000FDF7C4FD0023E25E002A05DB1F231A401E3B9340024A136010BDC0461C40001000E100E010B50300DE
:40308000022801D8002000E00120002803D15521180000F0BFFD10BD70B50024002504E02000FFF7EBFF05430134022CF8D9280070BDC04670B5002514E0EB005B1B9A0087
:4030C0000A4BD658002404E0E000301800F06CFC0134EA00521B9300044AD3181B7E9C42F2D30135022DE8D970BDC04664450010C300181A8300024AD3185B685889704715
:4031000064450010C300181A8300024AD3185B6859817047644500100203121A01238B40013B9A4205D90202101A834203D3052002E0062000E00020C0B27047F0B583B00D
:4031400001900F00FFF7D4FF06003988002200F013FB01003000FFF75DFE041E04D170003988FFF7D9FF040021003000FFF794FE0500631FDBB2012B03D831000198FFF7CF
:40318000C1FF2D01E8B204433C7303B0F0BDC04610B5002409E0E200121B9300044AD31859682000FFF7CAFF0134022CF3D910BD6445001010B5FFF7EBFFFFF7E9FE00F0B7
:4031C0000BFA002010BDC04610B50B4A51680B4B0B4053600A4C80236360A36A1B011B09C022D2051343A3620120FEF70BFCA36A1B011B09A36210BD70003140FFFFFFE099
:4032000080033240104B1A78D2B2D3009A1A93000E4AD3185B68D0220D4989580A04120C188801238340013B9A4206D2094B1A68094B1B785B00D15205E0064A1168064A03
:40324000127852008B527047650600086445001000003640780700086846001070B5274B1978C9B2264CCA00511A8A00A21850681A78D2B2D1008A1A9300E3181A7E013AC5
:40328000204B1B78DBB29A4220D91E4C23780133DBB22370194D2A78D2B2D3009A1A9300174AD31899682378DBB29A00D3185A008A18154B1A6000F039FA2878C0B2217811
:4032C000C9B200F05FFB00F0A3FA16E000220D4B1A700E4AD1680E4B0B40D3600D4B1B78012B02D1FFF768FE07E0084BDA6880218A43DA601A8901321A8170BD650600089F
:40330000644500106606000878070008A4060008FFFFFEFF6406000810B5084B832252001A601B68FFF76EFF054B1A8901321A81D968044A0A40DA6010BDC046F00036403E
:40334000A40600087FFFFEFF10B50C4B1B78DBB2DA00D31A9A000A4BD3580A4A1478E4001C19094B832252001A601B68FFF74AFF200000F019FBFFF771FF10BD65060008B9
:403380006445001066060008F000364001390843014B18607047C0460002364010B50F4B1C680F4B1C400F4B997F0F4800F0F4FC0E4B984204D820232343084A13600BE092
:4033C0000B4B984204D830232343044A136003E040232343014A136010BDC046E40000080FFEFFFFA406000880F0FA02001BB70000366E01034A044B1A60C1225204034BE1
:403400001A607047000083010004364000053640074B1A687F210A40064802431A60064A13680B40802109040B4313607047C046000436400000830100053640064A136891
:4034400006490B431360064A064B1A60C1225204054B1A607047C046A80236400100001000008301000436400005364070B50E001500038801249C40013CA3001B19580077
:40348000642100F089FC013083199C4200D22300B04201D8301A00E00020A84203D8AB4203D2062002E0062000E0002070BDC0460023144A1360144A1360144A13600621B8
:4034C000134A1160FA31134A1160FF39124A1160124A0631FF3111601268114A13600322104B1A60FA239B0000E0013B0B4A1268520701D4002BF8D1002B02D10822094B49
:403500001A6070478C013640B0023640B40236408802364080023640F0013640F0003640F8003640400336401C4B832252001A601B681B4B00229A5E002A05DB1F231A4096
:403540001E3B9340174A13600023174A1360174A1360174A1360174A13605021164A11604F39164A1160164A1360164A1368802149040B4313600222134B1A60FA239B002C
:4035800000E0013B842211498A58520701D0002BF7D10F4A0F4B1A607047C046F00036401C40001000E100E080023640B0023640B402364088023640F00136408C013640BD
:4035C0008001364000023640F800364000003640010300004003364070B5FFF76BFDFFF7F3FD80225202324B1A6032490B68324D2B430B600023314A1360314A1360314AA5
:403600001360314A1360314A1360314A1360314A1360314C2360314A1360C8208004304A10603048826A1201120982622E4846682E4A32408026F604324342602C4A1068F2
:40364000802676013043106080204000294A10600A682A430A608022520427490A6027482749086027490B602260FFF7C3FE264B9B7F013BFF2B09D824488021090144588C
:40368000234A22401B061B0C13434350FFF786FE204B1B68204A1343204A13600F22204B1A6000221F4B1A600A321F4B1A6070BD04023640A802364001000010F400364085
:4036C000B4023640C0023640200336408401364088023640800236408402364080013640D00236408003324070003140FFFFFFE094023640A0023640A4023640410B000060
:403700008801364090023640A406000800000140FF00FFFFE4000008001000800000364000033640F00136401003364070B50500FEF70BFA0C490B687F26B3430B4A1478CF
:403740002D196A7A13430B60FEF703FAFEF7FDF907490B68B343074A12681419627A13430B60FEF7F6F970BD0004364068460010000536407807000870B505001400012386
:403780008B40581E002D0AD00F2905D90A3B1800290000F001FB02E0290000F0FDFA053C012C00D84008002800D1013070BDC04610B50E4B1A78D2B2D3009A1A93000C4AB8
:4037C000D3185B6859891B7B18045A1F012A02D8802292041043053BDBB2012B02D8490800D10131FFF7D2FD10BDC046650600086445001010B50300408919881A7BFFF7D6
:40380000BBFF0004000C014B186010BD1403364010B50C4B00229A5E002A0ADB1F231A401E3B9340802208498B50BFF34F8FBFF36F8F0122054B1A60FFF73AFEFFF774FE02
:4038400010BDC0461C40001000E100E08001364010B5054AD36805490B43D3601720FEF7D1F8FFF7D5FF10BDA406000880000100F8B50700FEF769F905003E683C79072CD6
:4038800004D9E42189001C48FEF7C8F8A400B36A0F22A24093431A000623A3401343B3623E683C79072C03D914491348FEF7B6F8134BF318DB09134A944663441B01032C0E
:4038C0000AD81A68E4001F21A1408A4311000B22A2400A431A600AE0043C5A68E4001F21A1408A4311000B22A2400A435A602800FEF72FF9F8BDC0466C46001045020000BD
:403900000000CEBF0010030470B5184E3278D2B2174DD3009A1A9300EB185868154C002323703278D2B2D3009A1A9300EB1899682378DBB29A00D3185A008A180E4B1A600A
:40394000FFF7F4FE3378DBB2DA00D31A9A0053592078C0001818094B1860FFF789FF0848FFF766FBFFF774FF70BDC046650600086445001066060008780700087C07000853
:403980004933001010B5C300181A8300044A9858C9004018034B1860FFF76AFF10BDC046644500107C070008F8B50700FEF7CDF805003C683E79072E03D91E491E48FEF702
:4039C0002DF81E4BE318DB091D4A944663441B01032E06D81A68F6001F21B1408A431A6006E0043E5A68F6001F21B1408A435A603E683C79072C04D9E42189000E48FEF77B
:403A00000DF8A400B36A0F22A24093431A000E23A3401343B3623E683C79072C03D909490548FDF7FBFF0123A34073602800FEF790F8F8BD450200006C4600100000CEBF7D
:403A4000001003044703000010B5064B1B78012B06D1054B1868FFF7A7FF0022014B1A7010BDC046670600087C07000870B5114EC200121A9300F3185D68C0B20E4C2070D1
:403A8000FFF7E2FF2378DBB2DA00D31A9A0092590A4B1A600A4BDA687F218A43DA602178DA680A43DA602800FFF7A4FEFFF780FE70BDC04664450010650600087C0700082E
:403AC000A406000870B5C200121A9300114AD3185D68C9B2104C217099682378DBB29A00D3185A008A180D4B1A60FFF7BFFF2800FFF71CFE20780A4BC0001A6894466044E6
:403B00001860FFF7B5FE0122064B1A700648FFF78FFA70BD6445001066060008780700087C0700086706000819330010F0B5474680B482B007000E0090462E490A78D2B25C
:403B4000D3009A1A93002C4AD3185B680193002333700878C0B2294B1978C9B2FFF7B2FFFFF756FC00248025BC4202D23378AB4333706D0833782B4333700198FFF7D6FDE2
:403B8000FFF766FE1E4B00E0013B1E4AD268120601D5002BF8D11C4B1B681C88002DE3D1144B1B78DAB2D3009B1A9A00124BD058124B1B78DB00C018144B1860FFF7F4FEAC
:403BC0000022134B1A70FFF739FC220039000198FFF74CFC43461A7833789A4201D242461370094B1B6832785A7202B004BC9046F0BDC046650600086445001066060008F6
:403C000062660000A4060008780700087C07000867060008F0B54F4680B484B004008946C200121A9300394AD3185F68012003AB18703B88984001384843642100F0ACF889
:403C40000190E2B2324B1A703248FFF7F1F93E0009360022304B1A7000250AE003AA31000198FFF763FF05432B4A13780133DBB21370E200121B9300244AD318DA7E264BEC
:403C80001B78DBB29A42E9D803AB1B7801335B087B720022204B1A7024E0E200121B93001A4AD3189E681C4B1B78DBB29A00D3185A00B618194B1E60737A787A83420AD3D9
:403CC0001B1AD8B270724B4658436330642100F063F8707201E0002373720F4A13780133DBB21370E200121B9300084AD318DA7E094B1B78DBB29A42CFD80022064B1A7076
:403D0000280004B004BC9146F0BDC046644500106506000819330010660600087807000810B502490248FEF7E9FA10BD800700080000644010B5114B1B78002B0BD1104A93
:403D400010491148FEF732FA10491148FCF74AFF01220A4B1A700E4B00229A5E002A05DB1F231A401E3B93400A4A1360064A1368802109060B43136010BDC04668060008EF
:403D800080070008AC46001000006440213D00102440001000E100E0002243088B4274D303098B425FD3030A8B4244D3030B8B4228D3030C8B420DD3FF22090212BA030C15
:403DC0008B4202D31212090265D0030B8B4219D300E0090AC30B8B4201D3CB03C01A5241830B8B4201D38B03C01A5241430B8B4201D34B03C01A5241030B8B4201D30B03C8
:403E0000C01A5241C30A8B4201D3CB02C01A5241830A8B4201D38B02C01A5241430A8B4201D34B02C01A5241030A8B4201D30B02C01A5241CDD2C3098B4201D3CB01C01AC3
:403E4000524183098B4201D38B01C01A524143098B4201D34B01C01A524103098B4201D30B01C01A5241C3088B4201D3CB00C01A524183088B4201D38B00C01A52414308AA
:403E80008B4201D34B00C01A5241411A00D20146524110467047FFE701B5002000F006F802BDC0460029F7D076E770477047C04603008218934202D019700133FAE77047CC
:403EC000030030B5002A0DD00C7801335D1E013A2C700131002CF5D19A189A4202D01C700133FAE730BD0000F8B5C046F8BC08BC9E467047F8B5C046F8BC08BC9E4670472B
:403F0000EE010010F8010010020200100C02001016020010200200102A020010340200103E02001048020010520200105C0200100D0A20202030200D0A0000000D0A2020BA
:403F40002031200D0A0000000D0A20202032200D0A0000000D0A20202033200D0A0000000D0A20202034200D0A0000000D0A20202035200D0A0000000D0A20202036200D59
:403F80000A0000000D0A20202037200D0A0000000D0A20202038200D0A0000000D0A20202039200D0A0000000D0A2020202A200D0A0000000D0A20202023200D0A0000009C
:403FC0000D0A204E6F546F756368200D0A0000000D0A202020544849532049532055415254200D0A0000000003000000010000000100000000000000050360000400000024
:40400000010000000000000001000000060460000800000008060008E9060010080031000300000009002C0003000000F4010000140004010A0009050800000063010000F1
:404040000800000000000000000000000060000000000000000000000000000000000000000000000200000000000000000000006000000000000000000000000000000076
:404080000000000000000000070000000000000000000000680000000000000000000000000000001212000000000000030000000000000000000000CC0000BA00000000E4
:4040C00000000000000000001313000000001D1DC00A0010CC0A0010D80A0010E40A0010F00A0010FC0A0010080B0010140B0010400B00104A0B0010540B00105E0B001096
:40410000680B0010720B00107C0B0010860B001047656E6572617465645F536F757263655C50536F43365C70646C5C647269766572735C7065726970686572616C5C73792A
:4041400073696E745C63795F737973696E742E630000000047656E6572617465645F536F757263655C50536F43365C70646C5C647269766572735C70657269706865726156
:404180006C5C6970635C63795F6970635F6472762E68000047656E6572617465645F536F757263655C50536F43365C70646C5C647269766572735C7065726970686572618E
:4041C0006C5C6970635C63795F6970635F6472762E63000047656E6572617465645F536F757263655C50536F43365C70646C5C647269766572732F70657269706865726180
:404200006C2F6970632F63795F6970635F6472762E68000047656E6572617465645F536F757263655C50536F43365C70646C5C647269766572735C70657269706865726167
:404240006C5C6970635C63795F6970635F706970652E630047656E6572617465645F536F757263655C50536F43365C70646C5C647269766572735C70657269706865726170
:404280006C5C737973636C6B5C63795F737973636C6B2E630000000047656E6572617465645F536F757263655C50536F43365C70646C5C647269766572735C706572697023
:4042C000686572616C5C737973636C6B5C63795F737973636C6B2E680000000047656E6572617465645F536F757263655C50536F43365C70646C5C647269766572735C70EE
:4043000065726970686572616C5C6770696F5C63795F6770696F2E630000000047656E6572617465645F536F757263655C50536F43365C70646C5C647269766572735C70D6
:4043400065726970686572616C5C6770696F5C63795F6770696F2E680000000047656E6572617465645F536F757263655C50536F43365C70646C5C647269766572735C7091
:4043800065726970686572616C5C737973706D5C63795F737973706D2E63000047656E6572617465645F536F757263655C50536F43365C70646C5C647269766572735C703C
:4043C00065726970686572616C5C70726F745C63795F70726F742E630000000047656E6572617465645F536F757263655C50536F43365C70646C5C647269766572735C70EA
:4044000065726970686572616C5C7363625C63795F7363625F636F6D6D6F6E2E6800000047656E6572617465645F536F757263655C50536F43365C70646C5C647269766587
:4044400072735C7065726970686572616C5C7363625C63795F7363625F657A6932632E630000000047656E6572617465645F536F757263655C50536F43365C70646C5C64FD
:404480007269766572735C7065726970686572616C5C7363625C63795F7363625F756172742E680047656E6572617465645F536F757263655C50536F43365C70646C5C6423
:4044C0007269766572735C7065726970686572616C5C7363625C63795F7363625F756172742E6300000000000C000000080000000002000000000000000000000000000074
:40450000000000000000000000000000000000000B0000000000000000000000000000000000000047656E6572617465645F536F757263655C50536F43365C436170536502
:404540006E73655F50726F63657373696E672E630000000020202020202020202020202020000000E4450010C4060008F006000800000000580600080128000006000106A3
:4045800014460010D20600082C0700080000000050060008012800000600010644460010E006000868070008000000004C06000801280000010006010B00640028280A038C
:4045C0001E20800000000B00640028280A031E20800000000C00640028280F031E2010000000C80000043240010000000004324002000000000432400300000000043240AD
:4046000004000000000432400500000000043240070000000005324000000000000532400100000000053240020000000005324006000000000532400400000000053240A7
:40464000050000008002324002000000DE2B00109E2B0010A82B0010B22B0010C22B0010CC2B0010D62B00100000000047656E6572617465645F536F757263655C50536F9B
:4046800043365C70646C5C647269766572732F7065726970686572616C2F6770696F2F63795F6770696F2E6800000000000800010000000000000000000000100000000881
:4046C000C0000000D8460010C0000008800300007C040008400300000048E80100127A0000093D0000093D0000093D0004000000A00F00000000D00702FF0000200000007C
:40470000E9000010C1000010000000000004400B19D00D4B1B68002BFBDA3E220B4B1A600B4A0C4B1A600C4B0621A322D20099500A4A98509B580022034B5A60074B064A4D
:40474000D358002BFADA7047E0002340040126401E1F000008012640000026401C05000010B54378FF2B0DD100F06EF9064BDB685A68116801230B4313601368DB07FCD4B7
:4047800000F03AF910BDC04680002340F0B583B005000F0000F040F90600032824D12E4B1B69002B22DB002000F016F92B4B98421ED000232A4A0021012000F03DF900283C
:4047C00003D0284C17E0013400E00024002000F003F9224B984202D0234B9C42F3D9224B9C4207D91F4C06E0002404E01D4C02E01C4C00E00024002C2BD100F025F9019003
:404800001A4B1B4AD358002B13DA1A4A01211A4800F0FAF800280ED13800FFF777FF002D0BD0154B1B69002BFBDB00F0FDF8040004E00C4C02E00B4C00E0104C032E05D168
:404840000121002000F0D0F80028F9D1019800F0D3F8200003B0F0BDC000234001018800E000000805005200EF4902001C05000000002640380600080000234001005000D1
:4048800070B5304B1B68002BFBDA2E4BD96802220A43DA60DB68DB071FD52A4EF2681204150C294B1A69120A1204FF2424042240110090241A59120A12060A432A43F26000
:4048C0001969224A114090252D012943196119590A402A431A511A691B591A4B00225A605B681B4A116904230B431361012801D030BF00E020BF134B1B68002BFBDA114B74
:40490000DB68DB0715D510480269104B1A4014000C4DEA68120C1202FF2109020A4022430261902142581340EA68120E120213434350044BDA6802218A43DA6000225A601E
:4049400070BDC046E000234000002140FF00FFFF00ED00E0164A116904230B431361012801D030BF00E020BF124B1B68002BFBDA86235B00104AD358002B14D10F4A104BFE
:404980001A6006220F4B1A6038320F4B1A6006320E4B1A600D4B1B68002BFBDA0C4986235B00054AD1500022024B5A607047C04600ED00E0E0002340000025401E1F0000FC
:4049C0000801264018052640040126401C052640AAAAAAAA0000000001B40248844601BC604700BF950E001001B40248844601BC604700BF090E001001B40248844601BCF3
:404A0000604700BF531B001001B40248844601BC604700BFE50C001001B40248844601BC604700BF1105001001B40248844601BC604700BFFD15001001B40248844601BCFF
:404A4000604700BF8110001001B40248844601BC604700BF4B1B001000000000000000000000000000000000000000000000000000000000000000000000000000000000CD
:404A800000000000000000000000000000000000000000000000000000000000000000000000000000000000000000000000000000000000000000000000000000000000F6
:404AC00000000000000000000000000000000000000000000000000000000000000000000000000000000000000000000000000000000000000000000000000000000000B6
:404B00000000000000000000000000000000000000000000000000000000000000000000000000000000000000000000000000000000000000000000000000000000000075
:404B40000000000000000000000000000000000000000000000000000000000000000000000000000000000000000000000000000000000000000000000000000000000035
:404B800000000000000000000000000000000000000000000000000000000000000000000000000000000000000000000000000000000000000000000000000000000000F5
:404BC00000000000000000000000000000000000000000000000000000000000000000000000000000000000000000000000000000000000000000000000000000000000B5
:0200000490303A
:02000000B03B13
:0200000490501A
:0C0000000005E20721002101E21ED13BB7
:00000001FF